{
  "_format": "hh-sol-artifact-1",
  "contractName": "Mok",
  "sourceName": "contracts/Mok.sol",
  "abi": [
    {
      "inputs": [],
      "stateMutability": "nonpayable",
      "type": "constructor"
    },
    {
      "anonymous": false,
      "inputs": [
        {
          "indexed": true,
          "internalType": "address",
          "name": "owner",
          "type": "address"
        },
        {
          "indexed": true,
          "internalType": "address",
          "name": "spender",
          "type": "address"
        },
        {
          "indexed": false,
          "internalType": "uint256",
          "name": "value",
          "type": "uint256"
        }
      ],
      "name": "Approval",
      "type": "event"
    },
    {
      "anonymous": false,
      "inputs": [
        {
          "indexed": true,
          "internalType": "address",
          "name": "from",
          "type": "address"
        },
        {
          "indexed": true,
          "internalType": "address",
          "name": "to",
          "type": "address"
        },
        {
          "indexed": false,
          "internalType": "uint256",
          "name": "value",
          "type": "uint256"
        }
      ],
      "name": "Transfer",
      "type": "event"
    },
    {
      "stateMutability": "payable",
      "type": "fallback"
    },
    {
      "inputs": [
        {
          "internalType": "address",
          "name": "owner",
          "type": "address"
        },
        {
          "internalType": "address",
          "name": "spender",
          "type": "address"
        }
      ],
      "name": "allowance",
      "outputs": [
        {
          "internalType": "uint256",
          "name": "",
          "type": "uint256"
        }
      ],
      "stateMutability": "view",
      "type": "function"
    },
    {
      "inputs": [
        {
          "internalType": "address",
          "name": "spender",
          "type": "address"
        },
        {
          "internalType": "uint256",
          "name": "amount",
          "type": "uint256"
        }
      ],
      "name": "approve",
      "outputs": [
        {
          "internalType": "bool",
          "name": "",
          "type": "bool"
        }
      ],
      "stateMutability": "nonpayable",
      "type": "function"
    },
    {
      "inputs": [
        {
          "internalType": "address",
          "name": "account",
          "type": "address"
        }
      ],
      "name": "balanceOf",
      "outputs": [
        {
          "internalType": "uint256",
          "name": "",
          "type": "uint256"
        }
      ],
      "stateMutability": "view",
      "type": "function"
    },
    {
      "inputs": [],
      "name": "decimals",
      "outputs": [
        {
          "internalType": "uint8",
          "name": "",
          "type": "uint8"
        }
      ],
      "stateMutability": "view",
      "type": "function"
    },
    {
      "inputs": [
        {
          "internalType": "address",
          "name": "spender",
          "type": "address"
        },
        {
          "internalType": "uint256",
          "name": "subtractedValue",
          "type": "uint256"
        }
      ],
      "name": "decreaseAllowance",
      "outputs": [
        {
          "internalType": "bool",
          "name": "",
          "type": "bool"
        }
      ],
      "stateMutability": "nonpayable",
      "type": "function"
    },
    {
      "inputs": [
        {
          "internalType": "address",
          "name": "spender",
          "type": "address"
        },
        {
          "internalType": "uint256",
          "name": "addedValue",
          "type": "uint256"
        }
      ],
      "name": "increaseAllowance",
      "outputs": [
        {
          "internalType": "bool",
          "name": "",
          "type": "bool"
        }
      ],
      "stateMutability": "nonpayable",
      "type": "function"
    },
    {
      "inputs": [],
      "name": "mintself",
      "outputs": [],
      "stateMutability": "nonpayable",
      "type": "function"
    },
    {
      "inputs": [],
      "name": "myBalance",
      "outputs": [
        {
          "internalType": "uint256",
          "name": "",
          "type": "uint256"
        }
      ],
      "stateMutability": "view",
      "type": "function"
    },
    {
      "inputs": [],
      "name": "name",
      "outputs": [
        {
          "internalType": "string",
          "name": "",
          "type": "string"
        }
      ],
      "stateMutability": "view",
      "type": "function"
    },
    {
      "inputs": [],
      "name": "owner",
      "outputs": [
        {
          "internalType": "address",
          "name": "",
          "type": "address"
        }
      ],
      "stateMutability": "view",
      "type": "function"
    },
    {
      "inputs": [],
      "name": "symbol",
      "outputs": [
        {
          "internalType": "string",
          "name": "",
          "type": "string"
        }
      ],
      "stateMutability": "view",
      "type": "function"
    },
    {
      "inputs": [],
      "name": "totalSupply",
      "outputs": [
        {
          "internalType": "uint256",
          "name": "",
          "type": "uint256"
        }
      ],
      "stateMutability": "view",
      "type": "function"
    },
    {
      "inputs": [
        {
          "internalType": "address",
          "name": "to",
          "type": "address"
        },
        {
          "internalType": "uint256",
          "name": "amount",
          "type": "uint256"
        }
      ],
      "name": "transfer",
      "outputs": [
        {
          "internalType": "bool",
          "name": "",
          "type": "bool"
        }
      ],
      "stateMutability": "nonpayable",
      "type": "function"
    },
    {
      "inputs": [
        {
          "internalType": "address",
          "name": "from",
          "type": "address"
        },
        {
          "internalType": "address",
          "name": "to",
          "type": "address"
        },
        {
          "internalType": "uint256",
          "name": "amount",
          "type": "uint256"
        }
      ],
      "name": "transferFrom",
      "outputs": [
        {
          "internalType": "bool",
          "name": "",
          "type": "bool"
        }
      ],
      "stateMutability": "nonpayable",
      "type": "function"
    },
    {
      "stateMutability": "payable",
      "type": "receive"
    }
  ],
  "bytecode": "0x60806040523480156200001157600080fd5b506040518060400160405280600581526020017f46697865640000000000000000000000000000000000000000000000000000008152506040518060400160405280600381526020017f464958000000000000000000000000000000000000000000000000000000000081525081600390805190602001906200009692919062000290565b508060049080519060200190620000af92919062000290565b50505033600560006101000a81548173ffffffffffffffffffffffffffffffffffffffff021916908373ffffffffffffffffffffffffffffffffffffffff16021790555062000107336127106200010d60201b60201c565b620004ec565b600073ffffffffffffffffffffffffffffffffffffffff168273ffffffffffffffffffffffffffffffffffffffff16141562000180576040517f08c379a0000000000000000000000000000000000000000000000000000000008152600401620001779062000378565b60405180910390fd5b62000194600083836200028660201b60201c565b8060026000828254620001a89190620003c8565b92505081905550806000808473ffffffffffffffffffffffffffffffffffffffff1673ffffffffffffffffffffffffffffffffffffffff1681526020019081526020016000206000828254620001ff9190620003c8565b925050819055508173ffffffffffffffffffffffffffffffffffffffff16600073ffffffffffffffffffffffffffffffffffffffff167fddf252ad1be2c89b69c2b068fc378daa952ba7f163c4a11628f55a4df523b3ef836040516200026691906200039a565b60405180910390a362000282600083836200028b60201b60201c565b5050565b505050565b505050565b8280546200029e906200042f565b90600052602060002090601f016020900481019282620002c257600085556200030e565b82601f10620002dd57805160ff19168380011785556200030e565b828001600101855582156200030e579182015b828111156200030d578251825591602001919060010190620002f0565b5b5090506200031d919062000321565b5090565b5b808211156200033c57600081600090555060010162000322565b5090565b60006200034f601f83620003b7565b91506200035c82620004c3565b602082019050919050565b620003728162000425565b82525050565b60006020820190508181036000830152620003938162000340565b9050919050565b6000602082019050620003b1600083018462000367565b92915050565b600082825260208201905092915050565b6000620003d58262000425565b9150620003e28362000425565b9250827fffffffffffffffffffffffffffffffffffffffffffffffffffffffffffffffff038211156200041a576200041962000465565b5b828201905092915050565b6000819050919050565b600060028204905060018216806200044857607f821691505b602082108114156200045f576200045e62000494565b5b50919050565b7f4e487b7100000000000000000000000000000000000000000000000000000000600052601160045260246000fd5b7f4e487b7100000000000000000000000000000000000000000000000000000000600052602260045260246000fd5b7f45524332303a206d696e7420746f20746865207a65726f206164647265737300600082015250565b61170380620004fc6000396000f3fe6080604052600436106100e15760003560e01c8063854328fa1161007f578063a457c2d711610059578063a457c2d714610348578063a9059cbb14610385578063c9116b69146103c2578063dd62ed3e146103ed57610126565b8063854328fa146102db5780638da5cb5b146102f257806395d89b411461031d57610126565b806323b872dd116100bb57806323b872dd146101f9578063313ce56714610236578063395093511461026157806370a082311461029e57610126565b806306fdde0314610166578063095ea7b31461019157806318160ddd146101ce57610126565b36610126576101246040518060400160405280601381526020017f696e20726563656976652066756e6374696f6e0000000000000000000000000081525061042a565b005b6101646040518060400160405280600b81526020017f696e2066616c6c6261636b00000000000000000000000000000000000000000081525061042a565b005b34801561017257600080fd5b5061017b6104c3565b6040516101889190611180565b60405180910390f35b34801561019d57600080fd5b506101b860048036038101906101b39190610f81565b610555565b6040516101c59190611165565b60405180910390f35b3480156101da57600080fd5b506101e3610578565b6040516101f091906112a2565b60405180910390f35b34801561020557600080fd5b50610220600480360381019061021b9190610f32565b610582565b60405161022d9190611165565b60405180910390f35b34801561024257600080fd5b5061024b6105b1565b60405161025891906112bd565b60405180910390f35b34801561026d57600080fd5b5061028860048036038101906102839190610f81565b6105ba565b6040516102959190611165565b60405180910390f35b3480156102aa57600080fd5b506102c560048036038101906102c09190610ecd565b6105f1565b6040516102d291906112a2565b60405180910390f35b3480156102e757600080fd5b506102f0610639565b005b3480156102fe57600080fd5b50610307610647565b604051610314919061114a565b60405180910390f35b34801561032957600080fd5b5061033261066d565b60405161033f9190611180565b60405180910390f35b34801561035457600080fd5b5061036f600480360381019061036a9190610f81565b6106ff565b60405161037c9190611165565b60405180910390f35b34801561039157600080fd5b506103ac60048036038101906103a79190610f81565b610776565b6040516103b99190611165565b60405180910390f35b3480156103ce57600080fd5b506103d7610799565b6040516103e491906112a2565b60405180910390f35b3480156103f957600080fd5b50610414600480360381019061040f9190610ef6565b6107a9565b60405161042191906112a2565b60405180910390f35b6104c08160405160240161043e9190611180565b6040516020818303038152906040527f41304fac000000000000000000000000000000000000000000000000000000007bffffffffffffffffffffffffffffffffffffffffffffffffffffffff19166020820180517bffffffffffffffffffffffffffffffffffffffffffffffffffffffff8381831617835250505050610830565b50565b6060600380546104d2906113d2565b80601f01602080910402602001604051908101604052809291908181526020018280546104fe906113d2565b801561054b5780601f106105205761010080835404028352916020019161054b565b820191906000526020600020905b81548152906001019060200180831161052e57829003601f168201915b5050505050905090565b600080610560610859565b905061056d818585610861565b600191505092915050565b6000600254905090565b60008061058d610859565b905061059a858285610a2c565b6105a5858585610ab8565b60019150509392505050565b60006012905090565b6000806105c5610859565b90506105e68185856105d785896107a9565b6105e191906112f4565b610861565b600191505092915050565b60008060008373ffffffffffffffffffffffffffffffffffffffff1673ffffffffffffffffffffffffffffffffffffffff168152602001908152602001600020549050919050565b610645336103e8610d39565b565b600560009054906101000a900473ffffffffffffffffffffffffffffffffffffffff1681565b60606004805461067c906113d2565b80601f01602080910402602001604051908101604052809291908181526020018280546106a8906113d2565b80156106f55780601f106106ca576101008083540402835291602001916106f5565b820191906000526020600020905b8154815290600101906020018083116106d857829003601f168201915b5050505050905090565b60008061070a610859565b9050600061071882866107a9565b90508381101561075d576040517f08c379a000000000000000000000000000000000000000000000000000000000815260040161075490611262565b60405180910390fd5b61076a8286868403610861565b60019250505092915050565b600080610781610859565b905061078e818585610ab8565b600191505092915050565b60006107a4336105f1565b905090565b6000600160008473ffffffffffffffffffffffffffffffffffffffff1673ffffffffffffffffffffffffffffffffffffffff16815260200190815260200160002060008373ffffffffffffffffffffffffffffffffffffffff1673ffffffffffffffffffffffffffffffffffffffff16815260200190815260200160002054905092915050565b60008151905060006a636f6e736f6c652e6c6f679050602083016000808483855afa5050505050565b600033905090565b600073ffffffffffffffffffffffffffffffffffffffff168373ffffffffffffffffffffffffffffffffffffffff1614156108d1576040517f08c379a00000000000000000000000000000000000000000000000000000000081526004016108c890611242565b60405180910390fd5b600073ffffffffffffffffffffffffffffffffffffffff168273ffffffffffffffffffffffffffffffffffffffff161415610941576040517f08c379a0000000000000000000000000000000000000000000000000000000008152600401610938906111c2565b60405180910390fd5b80600160008573ffffffffffffffffffffffffffffffffffffffff1673ffffffffffffffffffffffffffffffffffffffff16815260200190815260200160002060008473ffffffffffffffffffffffffffffffffffffffff1673ffffffffffffffffffffffffffffffffffffffff168152602001908152602001600020819055508173ffffffffffffffffffffffffffffffffffffffff168373ffffffffffffffffffffffffffffffffffffffff167f8c5be1e5ebec7d5bd14f71427d1e84f3dd0314c0f7b2291e5b200ac8c7c3b92583604051610a1f91906112a2565b60405180910390a3505050565b6000610a3884846107a9565b90507fffffffffffffffffffffffffffffffffffffffffffffffffffffffffffffffff8114610ab25781811015610aa4576040517f08c379a0000000000000000000000000000000000000000000000000000000008152600401610a9b906111e2565b60405180910390fd5b610ab18484848403610861565b5b50505050565b600073ffffffffffffffffffffffffffffffffffffffff168373ffffffffffffffffffffffffffffffffffffffff161415610b28576040517f08c379a0000000000000000000000000000000000000000000000000000000008152600401610b1f90611222565b60405180910390fd5b600073ffffffffffffffffffffffffffffffffffffffff168273ffffffffffffffffffffffffffffffffffffffff161415610b98576040517f08c379a0000000000000000000000000000000000000000000000000000000008152600401610b8f906111a2565b60405180910390fd5b610ba3838383610e99565b60008060008573ffffffffffffffffffffffffffffffffffffffff1673ffffffffffffffffffffffffffffffffffffffff16815260200190815260200160002054905081811015610c29576040517f08c379a0000000000000000000000000000000000000000000000000000000008152600401610c2090611202565b60405180910390fd5b8181036000808673ffffffffffffffffffffffffffffffffffffffff1673ffffffffffffffffffffffffffffffffffffffff16815260200190815260200160002081905550816000808573ffffffffffffffffffffffffffffffffffffffff1673ffffffffffffffffffffffffffffffffffffffff1681526020019081526020016000206000828254610cbc91906112f4565b925050819055508273ffffffffffffffffffffffffffffffffffffffff168473ffffffffffffffffffffffffffffffffffffffff167fddf252ad1be2c89b69c2b068fc378daa952ba7f163c4a11628f55a4df523b3ef84604051610d2091906112a2565b60405180910390a3610d33848484610e9e565b50505050565b600073ffffffffffffffffffffffffffffffffffffffff168273ffffffffffffffffffffffffffffffffffffffff161415610da9576040517f08c379a0000000000000000000000000000000000000000000000000000000008152600401610da090611282565b60405180910390fd5b610db560008383610e99565b8060026000828254610dc791906112f4565b92505081905550806000808473ffffffffffffffffffffffffffffffffffffffff1673ffffffffffffffffffffffffffffffffffffffff1681526020019081526020016000206000828254610e1c91906112f4565b925050819055508173ffffffffffffffffffffffffffffffffffffffff16600073ffffffffffffffffffffffffffffffffffffffff167fddf252ad1be2c89b69c2b068fc378daa952ba7f163c4a11628f55a4df523b3ef83604051610e8191906112a2565b60405180910390a3610e9560008383610e9e565b5050565b505050565b505050565b600081359050610eb28161169f565b92915050565b600081359050610ec7816116b6565b92915050565b600060208284031215610edf57600080fd5b6000610eed84828501610ea3565b91505092915050565b60008060408385031215610f0957600080fd5b6000610f1785828601610ea3565b9250506020610f2885828601610ea3565b9150509250929050565b600080600060608486031215610f4757600080fd5b6000610f5586828701610ea3565b9350506020610f6686828701610ea3565b9250506040610f7786828701610eb8565b9150509250925092565b60008060408385031215610f9457600080fd5b6000610fa285828601610ea3565b9250506020610fb385828601610eb8565b9150509250929050565b610fc68161134a565b82525050565b610fd58161135c565b82525050565b6000610fe6826112d8565b610ff081856112e3565b935061100081856020860161139f565b61100981611462565b840191505092915050565b60006110216023836112e3565b915061102c82611473565b604082019050919050565b60006110446022836112e3565b915061104f826114c2565b604082019050919050565b6000611067601d836112e3565b915061107282611511565b602082019050919050565b600061108a6026836112e3565b91506110958261153a565b604082019050919050565b60006110ad6025836112e3565b91506110b882611589565b604082019050919050565b60006110d06024836112e3565b91506110db826115d8565b604082019050919050565b60006110f36025836112e3565b91506110fe82611627565b604082019050919050565b6000611116601f836112e3565b915061112182611676565b602082019050919050565b61113581611388565b82525050565b61114481611392565b82525050565b600060208201905061115f6000830184610fbd565b92915050565b600060208201905061117a6000830184610fcc565b92915050565b6000602082019050818103600083015261119a8184610fdb565b905092915050565b600060208201905081810360008301526111bb81611014565b9050919050565b600060208201905081810360008301526111db81611037565b9050919050565b600060208201905081810360008301526111fb8161105a565b9050919050565b6000602082019050818103600083015261121b8161107d565b9050919050565b6000602082019050818103600083015261123b816110a0565b9050919050565b6000602082019050818103600083015261125b816110c3565b9050919050565b6000602082019050818103600083015261127b816110e6565b9050919050565b6000602082019050818103600083015261129b81611109565b9050919050565b60006020820190506112b7600083018461112c565b92915050565b60006020820190506112d2600083018461113b565b92915050565b600081519050919050565b600082825260208201905092915050565b60006112ff82611388565b915061130a83611388565b9250827fffffffffffffffffffffffffffffffffffffffffffffffffffffffffffffffff0382111561133f5761133e611404565b5b828201905092915050565b600061135582611368565b9050919050565b60008115159050919050565b600073ffffffffffffffffffffffffffffffffffffffff82169050919050565b6000819050919050565b600060ff82169050919050565b60005b838110156113bd5780820151818401526020810190506113a2565b838111156113cc576000848401525b50505050565b600060028204905060018216806113ea57607f821691505b602082108114156113fe576113fd611433565b5b50919050565b7f4e487b7100000000000000000000000000000000000000000000000000000000600052601160045260246000fd5b7f4e487b7100000000000000000000000000000000000000000000000000000000600052602260045260246000fd5b6000601f19601f8301169050919050565b7f45524332303a207472616e7366657220746f20746865207a65726f206164647260008201527f6573730000000000000000000000000000000000000000000000000000000000602082015250565b7f45524332303a20617070726f766520746f20746865207a65726f20616464726560008201527f7373000000000000000000000000000000000000000000000000000000000000602082015250565b7f45524332303a20696e73756666696369656e7420616c6c6f77616e6365000000600082015250565b7f45524332303a207472616e7366657220616d6f756e742065786365656473206260008201527f616c616e63650000000000000000000000000000000000000000000000000000602082015250565b7f45524332303a207472616e736665722066726f6d20746865207a65726f20616460008201527f6472657373000000000000000000000000000000000000000000000000000000602082015250565b7f45524332303a20617070726f76652066726f6d20746865207a65726f2061646460008201527f7265737300000000000000000000000000000000000000000000000000000000602082015250565b7f45524332303a2064656372656173656420616c6c6f77616e63652062656c6f7760008201527f207a65726f000000000000000000000000000000000000000000000000000000602082015250565b7f45524332303a206d696e7420746f20746865207a65726f206164647265737300600082015250565b6116a88161134a565b81146116b357600080fd5b50565b6116bf81611388565b81146116ca57600080fd5b5056fea2646970667358221220ee3a424a6fdc7f41f8cd9a2f9d28435dfbab8d43b21e7067370be8a36fe8377b64736f6c63430008040033",
  "linkReferences": {},
  "deployedLinkReferences": {}
}